{
  "contractName": "Airlines",
  "abi": [
    {
      "inputs": [],
      "stateMutability": "payable",
      "type": "constructor"
    },
    {
      "inputs": [
        {
          "internalType": "address",
          "name": "",
          "type": "address"
        }
      ],
      "name": "escrow",
      "outputs": [
        {
          "internalType": "uint256",
          "name": "",
          "type": "uint256"
        }
      ],
      "stateMutability": "view",
      "type": "function"
    },
    {
      "inputs": [],
      "name": "register",
      "outputs": [],
      "stateMutability": "payable",
      "type": "function"
    },
    {
      "inputs": [
        {
          "internalType": "address payable",
          "name": "delAirline",
          "type": "address"
        }
      ],
      "name": "unregister",
      "outputs": [],
      "stateMutability": "nonpayable",
      "type": "function"
    },
    {
      "inputs": [
        {
          "internalType": "uint256",
          "name": "reqID",
          "type": "uint256"
        },
        {
          "internalType": "uint256",
          "name": "flightID",
          "type": "uint256"
        },
        {
          "internalType": "uint256",
          "name": "numSeats",
          "type": "uint256"
        },
        {
          "internalType": "uint256",
          "name": "custID",
          "type": "uint256"
        },
        {
          "internalType": "address",
          "name": "toAirline",
          "type": "address"
        }
      ],
      "name": "ASKrequest",
      "outputs": [],
      "stateMutability": "nonpayable",
      "type": "function"
    },
    {
      "inputs": [
        {
          "internalType": "uint256",
          "name": "reqID",
          "type": "uint256"
        },
        {
          "internalType": "bool",
          "name": "success",
          "type": "bool"
        },
        {
          "internalType": "address",
          "name": "fromAirline",
          "type": "address"
        }
      ],
      "name": "ASKresponse",
      "outputs": [],
      "stateMutability": "nonpayable",
      "type": "function"
    },
    {
      "inputs": [
        {
          "internalType": "uint256",
          "name": "reqID",
          "type": "uint256"
        },
        {
          "internalType": "address payable",
          "name": "toAirline",
          "type": "address"
        },
        {
          "internalType": "uint256",
          "name": "numSeats",
          "type": "uint256"
        }
      ],
      "name": "settlePayment",
      "outputs": [],
      "stateMutability": "payable",
      "type": "function"
    },
    {
      "inputs": [],
      "name": "replenishEscrow",
      "outputs": [],
      "stateMutability": "payable",
      "type": "function"
    }
  ],
  "bytecode": "0x6080604052336000806101000a81548173ffffffffffffffffffffffffffffffffffffffff021916908373ffffffffffffffffffffffffffffffffffffffff1602179055506001600260008060009054906101000a900473ffffffffffffffffffffffffffffffffffffffff1673ffffffffffffffffffffffffffffffffffffffff1673ffffffffffffffffffffffffffffffffffffffff1681526020019081526020016000208190555034600160003373ffffffffffffffffffffffffffffffffffffffff1673ffffffffffffffffffffffffffffffffffffffff16815260200190815260200160002081905550610c7f806100fd6000396000f3fe6080604052600436106100705760003560e01c80632ec2c2461161004e5780632ec2c246146100d157806357d3c7c3146100fa5780638bed703014610137578063da419f861461014157610070565b80631aa3a00814610075578063266599ef1461007f5780632b9eed75146100a8575b600080fd5b61007d61015d565b005b34801561008b57600080fd5b506100a660048036038101906100a1919061091b565b6101ee565b005b3480156100b457600080fd5b506100cf60048036038101906100ca91906109ce565b61037b565b005b3480156100dd57600080fd5b506100f860048036038101906100f39190610a5f565b61053a565b005b34801561010657600080fd5b50610121600480360381019061011c9190610a8c565b6106a5565b60405161012e9190610ac8565b60405180910390f35b61013f6106bd565b005b61015b60048036038101906101569190610ae3565b610715565b005b60003390506001600260008373ffffffffffffffffffffffffffffffffffffffff1673ffffffffffffffffffffffffffffffffffffffff1681526020019081526020016000208190555034600160008373ffffffffffffffffffffffffffffffffffffffff1673ffffffffffffffffffffffffffffffffffffffff1681526020019081526020016000208190555050565b6001600260003373ffffffffffffffffffffffffffffffffffffffff1673ffffffffffffffffffffffffffffffffffffffff168152602001908152602001600020541461023a57600080fd5b6001600260008373ffffffffffffffffffffffffffffffffffffffff1673ffffffffffffffffffffffffffffffffffffffff168152602001908152602001600020541461028657600080fd5b6040518060a001604052808681526020018581526020018481526020018381526020018273ffffffffffffffffffffffffffffffffffffffff16815250600360003373ffffffffffffffffffffffffffffffffffffffff1673ffffffffffffffffffffffffffffffffffffffff1681526020019081526020016000206000820151816000015560208201518160010155604082015181600201556060820151816003015560808201518160040160006101000a81548173ffffffffffffffffffffffffffffffffffffffff021916908373ffffffffffffffffffffffffffffffffffffffff1602179055509050505050505050565b6001600260003373ffffffffffffffffffffffffffffffffffffffff1673ffffffffffffffffffffffffffffffffffffffff16815260200190815260200160002054146103c757600080fd5b6001600260008373ffffffffffffffffffffffffffffffffffffffff1673ffffffffffffffffffffffffffffffffffffffff168152602001908152602001600020541461041357600080fd5b82600460003373ffffffffffffffffffffffffffffffffffffffff1673ffffffffffffffffffffffffffffffffffffffff1681526020019081526020016000206000018190555081600460003373ffffffffffffffffffffffffffffffffffffffff1673ffffffffffffffffffffffffffffffffffffffff16815260200190815260200160002060010160006101000a81548160ff02191690831515021790555080600460003373ffffffffffffffffffffffffffffffffffffffff1673ffffffffffffffffffffffffffffffffffffffff16815260200190815260200160002060010160016101000a81548173ffffffffffffffffffffffffffffffffffffffff021916908373ffffffffffffffffffffffffffffffffffffffff160217905550505050565b60008054906101000a900473ffffffffffffffffffffffffffffffffffffffff1673ffffffffffffffffffffffffffffffffffffffff163373ffffffffffffffffffffffffffffffffffffffff161461059257600080fd5b6000600260008373ffffffffffffffffffffffffffffffffffffffff1673ffffffffffffffffffffffffffffffffffffffff168152602001908152602001600020819055508073ffffffffffffffffffffffffffffffffffffffff166108fc600160008473ffffffffffffffffffffffffffffffffffffffff1673ffffffffffffffffffffffffffffffffffffffff168152602001908152602001600020549081150290604051600060405180830381858888f1935050505015801561065c573d6000803e3d6000fd5b506000600160008373ffffffffffffffffffffffffffffffffffffffff1673ffffffffffffffffffffffffffffffffffffffff1681526020019081526020016000208190555050565b60016020528060005260406000206000915090505481565b34600160003373ffffffffffffffffffffffffffffffffffffffff1673ffffffffffffffffffffffffffffffffffffffff168152602001908152602001600020600082825461070c9190610b65565b92505081905550565b6001600260003373ffffffffffffffffffffffffffffffffffffffff1673ffffffffffffffffffffffffffffffffffffffff168152602001908152602001600020541461076157600080fd5b6000339050670de0b6b3a76400008261077a9190610bbb565b600160008573ffffffffffffffffffffffffffffffffffffffff1673ffffffffffffffffffffffffffffffffffffffff16815260200190815260200160002060008282546107c89190610b65565b92505081905550670de0b6b3a7640000826107e39190610bbb565b600160008373ffffffffffffffffffffffffffffffffffffffff1673ffffffffffffffffffffffffffffffffffffffff16815260200190815260200160002060008282546108319190610c15565b9250508190555083600560008373ffffffffffffffffffffffffffffffffffffffff1673ffffffffffffffffffffffffffffffffffffffff1681526020019081526020016000208190555050505050565b600080fd5b6000819050919050565b61089a81610887565b81146108a557600080fd5b50565b6000813590506108b781610891565b92915050565b600073ffffffffffffffffffffffffffffffffffffffff82169050919050565b60006108e8826108bd565b9050919050565b6108f8816108dd565b811461090357600080fd5b50565b600081359050610915816108ef565b92915050565b600080600080600060a0868803121561093757610936610882565b5b6000610945888289016108a8565b9550506020610956888289016108a8565b9450506040610967888289016108a8565b9350506060610978888289016108a8565b925050608061098988828901610906565b9150509295509295909350565b60008115159050919050565b6109ab81610996565b81146109b657600080fd5b50565b6000813590506109c8816109a2565b92915050565b6000806000606084860312156109e7576109e6610882565b5b60006109f5868287016108a8565b9350506020610a06868287016109b9565b9250506040610a1786828701610906565b9150509250925092565b6000610a2c826108bd565b9050919050565b610a3c81610a21565b8114610a4757600080fd5b50565b600081359050610a5981610a33565b92915050565b600060208284031215610a7557610a74610882565b5b6000610a8384828501610a4a565b91505092915050565b600060208284031215610aa257610aa1610882565b5b6000610ab084828501610906565b91505092915050565b610ac281610887565b82525050565b6000602082019050610add6000830184610ab9565b92915050565b600080600060608486031215610afc57610afb610882565b5b6000610b0a868287016108a8565b9350506020610b1b86828701610a4a565b9250506040610b2c868287016108a8565b9150509250925092565b7f4e487b7100000000000000000000000000000000000000000000000000000000600052601160045260246000fd5b6000610b7082610887565b9150610b7b83610887565b9250827fffffffffffffffffffffffffffffffffffffffffffffffffffffffffffffffff03821115610bb057610baf610b36565b5b828201905092915050565b6000610bc682610887565b9150610bd183610887565b9250817fffffffffffffffffffffffffffffffffffffffffffffffffffffffffffffffff0483118215151615610c0a57610c09610b36565b5b828202905092915050565b6000610c2082610887565b9150610c2b83610887565b925082821015610c3e57610c3d610b36565b5b82820390509291505056fea26469706673582212206a0a4fb86e87661e7ecbf809f1f6456b6c9ce2d0a599dad3b567d1504005267864736f6c634300080d0033",
  "immutableReferences": {},
  "source": "// SPDX-License-Identifier: GPL-3.0\n\npragma solidity >=0.7.0 <0.9.0;\n\ncontract Airlines {\n    address chairperson;\n\n    //     \n    struct reqStruc {\n        uint256 reqID;\n        uint256 fID;\n        uint256 numSeats;\n        uint256 passengerID;\n        address toAirline;\n    }\n\n    //     \n    struct respStruc {\n        uint256 reqID;\n        bool status;\n        address fromAirline;\n    }\n\n    //     \n    mapping(address => uint256) public escrow;\n    mapping(address => uint256) membership;\n    mapping(address => reqStruc) reqs;\n    mapping(address => respStruc) reps;\n    mapping(address => uint256) settledReqID;\n\n    // \n    modifier onlyChairperson() {\n        require(msg.sender == chairperson);\n        _;\n    }\n\n    modifier onlyMember() {\n        require(membership[msg.sender] == 1);\n        _;\n    }\n\n    constructor() payable {\n        chairperson = msg.sender;\n        membership[chairperson] = 1; //  \n        escrow[msg.sender] = msg.value;\n    }\n\n    function register() public payable {\n        address newAirline = msg.sender;\n        membership[newAirline] = 1;\n        escrow[newAirline] = msg.value;\n    }\n\n    function unregister(address payable delAirline) public onlyChairperson {\n        membership[delAirline] = 0;\n        //     \n        delAirline.transfer(escrow[delAirline]);\n        escrow[delAirline] = 0;\n    }\n\n    function ASKrequest(\n        uint256 reqID,\n        uint256 flightID,\n        uint256 numSeats,\n        uint256 custID,\n        address toAirline\n    ) public onlyMember {\n        require(membership[toAirline] == 1);\n        // ASKRequest()    \n        reqs[msg.sender] = reqStruc(\n            reqID,\n            flightID,\n            numSeats,\n            custID,\n            toAirline\n        );\n    }\n\n    function ASKresponse(\n        uint256 reqID,\n        bool success,\n        address fromAirline\n    ) public onlyMember {\n        require(membership[fromAirline] == 1);\n        reps[msg.sender].reqID = reqID;\n        reps[msg.sender].status = success;\n        reps[msg.sender].fromAirline = fromAirline;\n    }\n\n    function settlePayment(\n        uint256 reqID,\n        address payable toAirline,\n        uint256 numSeats\n    ) public payable onlyMember {\n        //    ASK   \n        address fromAirline = msg.sender;\n\n        //      .\n        //    1ETH .\n        // wei  \n        escrow[toAirline] += numSeats * 1000000000000000000;\n        escrow[fromAirline] -= numSeats * 1000000000000000000;\n        settledReqID[fromAirline] = reqID; // request ID      \n    }\n\n    function replenishEscrow() public payable {\n        escrow[msg.sender] += msg.value;\n    }\n}\n",
  "sourcePath": "/mnt/c/Users//Desktop/studying_solidity/Chapter06/Airlines-Dapp/airlines-contract/contracts/Airlines.sol",
  "compiler": {
    "name": "solc",
    "version": "0.8.13+commit.abaa5c0e.Emscripten.clang"
  },
  "schemaVersion": "3.4.7",
  "updatedAt": "2022-05-17T07:52:52.248Z",
  "devdoc": {
    "kind": "dev",
    "methods": {},
    "version": 1
  },
  "userdoc": {
    "kind": "user",
    "methods": {},
    "version": 1
  }
}