{
  "contractName": "Ballot",
  "abi": [
    {
      "inputs": [
        {
          "internalType": "uint256",
          "name": "numProposals",
          "type": "uint256"
        }
      ],
      "stateMutability": "nonpayable",
      "type": "constructor"
    },
    {
      "inputs": [],
      "name": "test",
      "outputs": [
        {
          "internalType": "bool",
          "name": "",
          "type": "bool"
        }
      ],
      "stateMutability": "view",
      "type": "function"
    },
    {
      "inputs": [
        {
          "internalType": "address",
          "name": "voter",
          "type": "address"
        }
      ],
      "name": "register",
      "outputs": [],
      "stateMutability": "nonpayable",
      "type": "function"
    },
    {
      "inputs": [
        {
          "internalType": "uint256",
          "name": "toProposal",
          "type": "uint256"
        }
      ],
      "name": "vote",
      "outputs": [],
      "stateMutability": "nonpayable",
      "type": "function"
    },
    {
      "inputs": [],
      "name": "reqWinner",
      "outputs": [
        {
          "internalType": "uint256",
          "name": "winningProposal",
          "type": "uint256"
        }
      ],
      "stateMutability": "view",
      "type": "function"
    }
  ],
  "bytecode": "0x608060405234801561001057600080fd5b50604051610bb9380380610bb98339818101604052810190610032919061017f565b33600060016101000a81548173ffffffffffffffffffffffffffffffffffffffff021916908373ffffffffffffffffffffffffffffffffffffffff1602179055506002600160008060019054906101000a900473ffffffffffffffffffffffffffffffffffffffff1673ffffffffffffffffffffffffffffffffffffffff1673ffffffffffffffffffffffffffffffffffffffff1681526020019081526020016000206000018190555060005b8181101561013d57600260405180602001604052806000815250908060018154018082558091505060019003906000526020600020016000909190919091506000820151816000015550508080610135906101db565b9150506100df565b5050610223565b600080fd5b6000819050919050565b61015c81610149565b811461016757600080fd5b50565b60008151905061017981610153565b92915050565b60006020828403121561019557610194610144565b5b60006101a38482850161016a565b91505092915050565b7f4e487b7100000000000000000000000000000000000000000000000000000000600052601160045260246000fd5b60006101e682610149565b91507fffffffffffffffffffffffffffffffffffffffffffffffffffffffffffffffff8203610218576102176101ac565b5b600182019050919050565b610987806102326000396000f3fe608060405234801561001057600080fd5b506004361061004c5760003560e01c80630121b93f146100515780634420e4861461006d578063508b30c914610089578063f8a8fd6d146100a7575b600080fd5b61006b6004803603810190610066919061054d565b6100c5565b005b610087600480360381019061008291906105d8565b61033a565b005b61009161046f565b60405161009e9190610614565b60405180910390f35b6100af610501565b6040516100bc919061064a565b60405180910390f35b6000600160003373ffffffffffffffffffffffffffffffffffffffff1673ffffffffffffffffffffffffffffffffffffffff168152602001908152602001600020600001541161014a576040517f08c379a0000000000000000000000000000000000000000000000000000000008152600401610141906106c2565b60405180910390fd5b6000600160003373ffffffffffffffffffffffffffffffffffffffff1673ffffffffffffffffffffffffffffffffffffffff168152602001908152602001600020604051806060016040529081600082015481526020016001820160009054906101000a900460ff161515151581526020016002820154815250509050600015158160200151151514610212576040517f08c379a00000000000000000000000000000000000000000000000000000000081526004016102099061072e565b60405180910390fd5b6002805490508210610259576040517f08c379a00000000000000000000000000000000000000000000000000000000081526004016102509061079a565b60405180910390fd5b60018060003373ffffffffffffffffffffffffffffffffffffffff1673ffffffffffffffffffffffffffffffffffffffff16815260200190815260200160002060010160006101000a81548160ff02191690831515021790555081600160003373ffffffffffffffffffffffffffffffffffffffff1673ffffffffffffffffffffffffffffffffffffffff16815260200190815260200160002060020181905550806000015160028381548110610313576103126107ba565b5b90600052602060002001600001600082825461032f9190610818565b925050819055505050565b600060019054906101000a900473ffffffffffffffffffffffffffffffffffffffff1673ffffffffffffffffffffffffffffffffffffffff163373ffffffffffffffffffffffffffffffffffffffff16146103ca576040517f08c379a00000000000000000000000000000000000000000000000000000000081526004016103c1906108ba565b60405180910390fd5b60018060008373ffffffffffffffffffffffffffffffffffffffff1673ffffffffffffffffffffffffffffffffffffffff168152602001908152602001600020600001819055506000600160008373ffffffffffffffffffffffffffffffffffffffff1673ffffffffffffffffffffffffffffffffffffffff16815260200190815260200160002060010160006101000a81548160ff02191690831515021790555050565b6000806000905060005b6002805490508110156104ea57816002828154811061049b5761049a6107ba565b5b906000526020600020016000015411156104d757600281815481106104c3576104c26107ba565b5b906000526020600020016000015491508092505b80806104e2906108da565b915050610479565b5060038110156104fd576104fc610922565b5b5090565b60008054906101000a900460ff1681565b600080fd5b6000819050919050565b61052a81610517565b811461053557600080fd5b50565b60008135905061054781610521565b92915050565b60006020828403121561056357610562610512565b5b600061057184828501610538565b91505092915050565b600073ffffffffffffffffffffffffffffffffffffffff82169050919050565b60006105a58261057a565b9050919050565b6105b58161059a565b81146105c057600080fd5b50565b6000813590506105d2816105ac565b92915050565b6000602082840312156105ee576105ed610512565b5b60006105fc848285016105c3565b91505092915050565b61060e81610517565b82525050565b60006020820190506106296000830184610605565b92915050565b60008115159050919050565b6106448161062f565b82525050565b600060208201905061065f600083018461063b565b92915050565b600082825260208201905092915050565b7f4e6f742061205265676973746572656420566f74657200000000000000000000600082015250565b60006106ac601683610665565b91506106b782610676565b602082019050919050565b600060208201905081810360008301526106db8161069f565b9050919050565b7f596f7520616c726561647920766f746564000000000000000000000000000000600082015250565b6000610718601183610665565b9150610723826106e2565b602082019050919050565b600060208201905081810360008301526107478161070b565b9050919050565b7f556e646566696e65642050726f706f73616c0000000000000000000000000000600082015250565b6000610784601283610665565b915061078f8261074e565b602082019050919050565b600060208201905081810360008301526107b381610777565b9050919050565b7f4e487b7100000000000000000000000000000000000000000000000000000000600052603260045260246000fd5b7f4e487b7100000000000000000000000000000000000000000000000000000000600052601160045260246000fd5b600061082382610517565b915061082e83610517565b9250827fffffffffffffffffffffffffffffffffffffffffffffffffffffffffffffffff03821115610863576108626107e9565b5b828201905092915050565b7f596f7520617265206e6f74206368616972706572736f6e000000000000000000600082015250565b60006108a4601783610665565b91506108af8261086e565b602082019050919050565b600060208201905081810360008301526108d381610897565b9050919050565b60006108e582610517565b91507fffffffffffffffffffffffffffffffffffffffffffffffffffffffffffffffff8203610917576109166107e9565b5b600182019050919050565b7f4e487b7100000000000000000000000000000000000000000000000000000000600052600160045260246000fdfea26469706673582212205ed8118d2d868fadc1af38c2df340cbe6486dda6b5a937ba00462656b9833d7664736f6c634300080d0033",
  "immutableReferences": {},
  "source": "pragma solidity ^0.8.13;\n\n// import \"hardhat/console.sol\";\n\ncontract Ballot {\n\n    struct Voter {                     \n        uint weight;\n        bool voted;\n        uint vote;\n    }\n    struct Proposal {                  \n        uint voteCount;\n    }\n\n    bool public test;\n\n    address chairperson;\n    mapping(address => Voter) voters;\n    Proposal[] proposals;\n\n    //modifiers\n    modifier onlyChair() \n    {\n        require(msg.sender == chairperson, \"You are not chairperson\");\n        _;\n    }\n    \n    modifier validVoter()\n    {\n        require(voters[msg.sender].weight > 0, \"Not a Registered Voter\");\n        _;\n    }\n\n    constructor (uint numProposals) {\n        chairperson = msg.sender;\n        voters[chairperson].weight = 2; // weight 2 for testing purposes\n        //proposals.length = numProposals; -- before 0.6.0\n        for (uint prop = 0; prop < numProposals; prop ++)\n            proposals.push(Proposal(0));\n        \n    }\n    \n    function register(address voter) public onlyChair{\n        voters[voter].weight = 1;\n        voters[voter].voted = false;\n    }\n\n    function vote(uint toProposal) public validVoter{\n        Voter memory sender = voters[msg.sender];\n        require(sender.voted == false, \"You already voted\");\n        require (toProposal < proposals.length, \"Undefined Proposal\");\n        voters[msg.sender].voted = true;\n        voters[msg.sender].vote = toProposal;\n        proposals[toProposal].voteCount += sender.weight;\n    }\n\n    function reqWinner() public view returns (uint winningProposal) {\n        uint winningVoteCount = 0;\n        for (uint prop = 0; prop < proposals.length; prop++) \n            if (proposals[prop].voteCount > winningVoteCount) {\n                winningVoteCount = proposals[prop].voteCount;\n                winningProposal = prop;\n            }\n        assert(winningVoteCount>=3);\n    }\n}",
  "sourcePath": "/mnt/c/Users//Desktop/studying_solidity/Chapter04/Ballot-Dapp/ballot-contract/contracts/Ballot.sol",
  "compiler": {
    "name": "solc",
    "version": "0.8.13+commit.abaa5c0e.Emscripten.clang"
  },
  "schemaVersion": "3.4.7",
  "updatedAt": "2022-05-06T10:10:12.578Z",
  "devdoc": {
    "kind": "dev",
    "methods": {},
    "version": 1
  },
  "userdoc": {
    "kind": "user",
    "methods": {},
    "version": 1
  }
}