{
  "contractName": "Ballot",
  "abi": [
    {
      "inputs": [
        {
          "internalType": "uint256",
          "name": "numProposals",
          "type": "uint256"
        }
      ],
      "stateMutability": "nonpayable",
      "type": "constructor"
    },
    {
      "inputs": [
        {
          "internalType": "address",
          "name": "voter",
          "type": "address"
        }
      ],
      "name": "register",
      "outputs": [],
      "stateMutability": "nonpayable",
      "type": "function"
    },
    {
      "inputs": [
        {
          "internalType": "uint256",
          "name": "toProposal",
          "type": "uint256"
        }
      ],
      "name": "vote",
      "outputs": [],
      "stateMutability": "nonpayable",
      "type": "function"
    },
    {
      "inputs": [],
      "name": "reqWinner",
      "outputs": [
        {
          "internalType": "uint256",
          "name": "winningProposal",
          "type": "uint256"
        }
      ],
      "stateMutability": "view",
      "type": "function"
    }
  ],
  "bytecode": "0x608060405234801561001057600080fd5b506040516109243803806109248339818101604052810190610032919061017e565b336000806101000a81548173ffffffffffffffffffffffffffffffffffffffff021916908373ffffffffffffffffffffffffffffffffffffffff1602179055506002600160008060009054906101000a900473ffffffffffffffffffffffffffffffffffffffff1673ffffffffffffffffffffffffffffffffffffffff1673ffffffffffffffffffffffffffffffffffffffff1681526020019081526020016000206000018190555060005b8181101561013c57600260405180602001604052806000815250908060018154018082558091505060019003906000526020600020016000909190919091506000820151816000015550508080610134906101da565b9150506100de565b5050610222565b600080fd5b6000819050919050565b61015b81610148565b811461016657600080fd5b50565b60008151905061017881610152565b92915050565b60006020828403121561019457610193610143565b5b60006101a284828501610169565b91505092915050565b7f4e487b7100000000000000000000000000000000000000000000000000000000600052601160045260246000fd5b60006101e582610148565b91507fffffffffffffffffffffffffffffffffffffffffffffffffffffffffffffffff8203610217576102166101ab565b5b600182019050919050565b6106f3806102316000396000f3fe608060405234801561001057600080fd5b50600436106100415760003560e01c80630121b93f146100465780634420e48614610062578063508b30c91461007e575b600080fd5b610060600480360381019061005b9190610433565b61009c565b005b61007c600480360381019061007791906104be565b61020f565b005b610086610366565b60405161009391906104fa565b60405180910390f35b6000600160003373ffffffffffffffffffffffffffffffffffffffff1673ffffffffffffffffffffffffffffffffffffffff1681526020019081526020016000206000015411610121576040517f08c379a000000000000000000000000000000000000000000000000000000000815260040161011890610572565b60405180910390fd5b6000600160003373ffffffffffffffffffffffffffffffffffffffff1673ffffffffffffffffffffffffffffffffffffffff168152602001908152602001600020604051806060016040529081600082015481526020016001820160009054906101000a900460ff1615151515815260200160028201548152505090508060200151156101ad57600080fd5b60028054905082106101be57600080fd5b60018160200190151590811515815250508060000151600283815481106101e8576101e7610592565b5b90600052602060002001600001600082825461020491906105f0565b925050819055505050565b60008054906101000a900473ffffffffffffffffffffffffffffffffffffffff1673ffffffffffffffffffffffffffffffffffffffff163373ffffffffffffffffffffffffffffffffffffffff161461026757600080fd5b600160008273ffffffffffffffffffffffffffffffffffffffff1673ffffffffffffffffffffffffffffffffffffffff16815260200190815260200160002060010160009054906101000a900460ff16156102c157600080fd5b60018060008373ffffffffffffffffffffffffffffffffffffffff1673ffffffffffffffffffffffffffffffffffffffff168152602001908152602001600020600001819055506000600160008373ffffffffffffffffffffffffffffffffffffffff1673ffffffffffffffffffffffffffffffffffffffff16815260200190815260200160002060010160006101000a81548160ff02191690831515021790555050565b6000806000905060005b6002805490508110156103e157816002828154811061039257610391610592565b5b906000526020600020016000015411156103ce57600281815481106103ba576103b9610592565b5b906000526020600020016000015491508092505b80806103d990610646565b915050610370565b5060038110156103f4576103f361068e565b5b5090565b600080fd5b6000819050919050565b610410816103fd565b811461041b57600080fd5b50565b60008135905061042d81610407565b92915050565b600060208284031215610449576104486103f8565b5b60006104578482850161041e565b91505092915050565b600073ffffffffffffffffffffffffffffffffffffffff82169050919050565b600061048b82610460565b9050919050565b61049b81610480565b81146104a657600080fd5b50565b6000813590506104b881610492565b92915050565b6000602082840312156104d4576104d36103f8565b5b60006104e2848285016104a9565b91505092915050565b6104f4816103fd565b82525050565b600060208201905061050f60008301846104eb565b92915050565b600082825260208201905092915050565b7f4e6f742061205265676973746572656420566f74657200000000000000000000600082015250565b600061055c601683610515565b915061056782610526565b602082019050919050565b6000602082019050818103600083015261058b8161054f565b9050919050565b7f4e487b7100000000000000000000000000000000000000000000000000000000600052603260045260246000fd5b7f4e487b7100000000000000000000000000000000000000000000000000000000600052601160045260246000fd5b60006105fb826103fd565b9150610606836103fd565b9250827fffffffffffffffffffffffffffffffffffffffffffffffffffffffffffffffff0382111561063b5761063a6105c1565b5b828201905092915050565b6000610651826103fd565b91507fffffffffffffffffffffffffffffffffffffffffffffffffffffffffffffffff8203610683576106826105c1565b5b600182019050919050565b7f4e487b7100000000000000000000000000000000000000000000000000000000600052600160045260246000fdfea264697066735822122008463c2fdf203ae7bb59bf7bd07c718a5045d60a77f10edfbe2ddcbc0799ac1964736f6c634300080d0033",
  "immutableReferences": {},
  "source": "// SPDX-License-Identifier: GPL-3.0\npragma solidity >=0.7.0 <0.9.0;\n\ncontract Ballot {\n    struct Voter {\n        uint256 weight;\n        bool voted;\n        uint256 vote;\n    }\n\n    struct Proposal {\n        uint256 voteCount;\n    }\n\n    address chairperson;\n    mapping(address => Voter) voters;\n    Proposal[] proposals;\n\n    modifier onlyChair() {\n        require(msg.sender == chairperson);\n        _;\n    }\n\n    modifier validVoter() {\n        require(voters[msg.sender].weight > 0, \"Not a Registered Voter\");\n        _;\n    }\n\n    constructor(uint256 numProposals) {\n        chairperson = msg.sender;\n        voters[chairperson].weight = 2;\n        for (uint256 prop = 0; prop < numProposals; prop++)\n            proposals.push(Proposal(0));\n    }\n\n    function register(address voter) public onlyChair {\n        require(!voters[voter].voted);\n        voters[voter].weight = 1;\n        voters[voter].voted = false;\n    }\n\n    function vote(uint256 toProposal) public validVoter {\n        Voter memory sender = voters[msg.sender];\n\n        require(!sender.voted);\n        require(toProposal < proposals.length);\n\n        sender.voted = true;\n        proposals[toProposal].voteCount += sender.weight;\n    }\n\n    function reqWinner() public view returns (uint256 winningProposal) {\n        uint256 winningVoteCount = 0;\n        for (uint256 prop = 0; prop < proposals.length; prop++) {\n            if (proposals[prop].voteCount > winningVoteCount) {\n                winningVoteCount = proposals[prop].voteCount;\n                winningProposal = prop;\n            }\n        }\n        assert(winningVoteCount >= 3);\n    }\n}\n",
  "sourcePath": "/mnt/c/Users//Desktop/studying_solidity/Chapter04/Ballot-Dapp/ballot-contract/contracts/Ballot.sol",
  "compiler": {
    "name": "solc",
    "version": "0.8.13+commit.abaa5c0e.Emscripten.clang"
  },
  "schemaVersion": "3.4.7",
  "updatedAt": "2022-04-30T07:15:26.070Z",
  "devdoc": {
    "kind": "dev",
    "methods": {},
    "version": 1
  },
  "userdoc": {
    "kind": "user",
    "methods": {},
    "version": 1
  }
}