{
  "contractName": "BlindAuction",
  "abi": [
    {
      "inputs": [],
      "stateMutability": "nonpayable",
      "type": "constructor"
    },
    {
      "anonymous": false,
      "inputs": [
        {
          "indexed": false,
          "internalType": "address",
          "name": "winner",
          "type": "address"
        },
        {
          "indexed": false,
          "internalType": "uint256",
          "name": "highestBid",
          "type": "uint256"
        }
      ],
      "name": "AuctionEnded",
      "type": "event"
    },
    {
      "anonymous": false,
      "inputs": [],
      "name": "BiddingStarted",
      "type": "event"
    },
    {
      "anonymous": false,
      "inputs": [],
      "name": "RevealStarted",
      "type": "event"
    },
    {
      "inputs": [],
      "name": "currentPhase",
      "outputs": [
        {
          "internalType": "enum BlindAuction.Phase",
          "name": "",
          "type": "uint8"
        }
      ],
      "stateMutability": "view",
      "type": "function"
    },
    {
      "inputs": [],
      "name": "highestBid",
      "outputs": [
        {
          "internalType": "uint256",
          "name": "",
          "type": "uint256"
        }
      ],
      "stateMutability": "view",
      "type": "function"
    },
    {
      "inputs": [],
      "name": "highestBidder",
      "outputs": [
        {
          "internalType": "address",
          "name": "",
          "type": "address"
        }
      ],
      "stateMutability": "view",
      "type": "function"
    },
    {
      "inputs": [],
      "name": "advancePhase",
      "outputs": [],
      "stateMutability": "nonpayable",
      "type": "function"
    },
    {
      "inputs": [
        {
          "internalType": "bytes32",
          "name": "blindBid",
          "type": "bytes32"
        }
      ],
      "name": "bid",
      "outputs": [],
      "stateMutability": "payable",
      "type": "function"
    },
    {
      "inputs": [
        {
          "internalType": "uint256",
          "name": "value",
          "type": "uint256"
        },
        {
          "internalType": "bytes32",
          "name": "secret",
          "type": "bytes32"
        }
      ],
      "name": "reveal",
      "outputs": [],
      "stateMutability": "nonpayable",
      "type": "function"
    },
    {
      "inputs": [],
      "name": "withdraw",
      "outputs": [],
      "stateMutability": "nonpayable",
      "type": "function"
    },
    {
      "inputs": [],
      "name": "auctionEnd",
      "outputs": [],
      "stateMutability": "nonpayable",
      "type": "function"
    }
  ],
  "bytecode": "0x608060405260008060006101000a81548160ff0219169083600381111561002957610028610086565b5b0217905550600060035534801561003f57600080fd5b5033600060016101000a81548173ffffffffffffffffffffffffffffffffffffffff021916908373ffffffffffffffffffffffffffffffffffffffff1602179055506100b5565b7f4e487b7100000000000000000000000000000000000000000000000000000000600052602160045260246000fd5b610b88806100c46000396000f3fe60806040526004361061007b5760003560e01c806391f901571161004e57806391f9015714610102578063957bb1e01461012d578063be25a71814610149578063d57bde79146101605761007b565b8063055ad42e146100805780632a24f46c146100ab5780633ccfd60b146100c25780634036778f146100d9575b600080fd5b34801561008c57600080fd5b5061009561018b565b6040516100a291906108ac565b60405180910390f35b3480156100b757600080fd5b506100c061019c565b005b3480156100ce57600080fd5b506100d7610249565b005b3480156100e557600080fd5b5061010060048036038101906100fb9190610938565b610329565b005b34801561010e57600080fd5b50610117610427565b60405161012491906109b9565b60405180910390f35b610147600480360381019061014291906109d4565b61044d565b005b34801561015557600080fd5b5061015e6104fb565b005b34801561016c57600080fd5b506101756106f7565b6040516101829190610a10565b60405180910390f35b60008054906101000a900460ff1681565b60038060038111156101b1576101b0610835565b5b60008054906101000a900460ff1660038111156101d1576101d0610835565b5b146101db57600080fd5b600060019054906101000a900473ffffffffffffffffffffffffffffffffffffffff1673ffffffffffffffffffffffffffffffffffffffff166108fc6003549081150290604051600060405180830381858888f19350505050158015610245573d6000803e3d6000fd5b5050565b6000600460003373ffffffffffffffffffffffffffffffffffffffff1673ffffffffffffffffffffffffffffffffffffffff1681526020019081526020016000205490506000811161029a57600080fd5b6000600460003373ffffffffffffffffffffffffffffffffffffffff1673ffffffffffffffffffffffffffffffffffffffff168152602001908152602001600020819055503373ffffffffffffffffffffffffffffffffffffffff166108fc829081150290604051600060405180830381858888f19350505050158015610325573d6000803e3d6000fd5b5050565b600280600381111561033e5761033d610835565b5b60008054906101000a900460ff16600381111561035e5761035d610835565b5b1461036857600080fd5b600080600160003373ffffffffffffffffffffffffffffffffffffffff1673ffffffffffffffffffffffffffffffffffffffff168152602001908152602001600020905084846040516020016103bf929190610a6d565b60405160208183030381529060405280519060200120816000015403610420578060010154826103ef9190610ac8565b91508481600101541015801561040b575061040a33866106fd565b5b1561041f57848261041c9190610b1e565b91505b5b5050505050565b600260009054906101000a900473ffffffffffffffffffffffffffffffffffffffff1681565b600180600381111561046257610461610835565b5b60008054906101000a900460ff16600381111561048257610481610835565b5b1461048c57600080fd5b604051806040016040528083815260200134815250600160003373ffffffffffffffffffffffffffffffffffffffff1673ffffffffffffffffffffffffffffffffffffffff16815260200190815260200160002060008201518160000155602082015181600101559050505050565b600060019054906101000a900473ffffffffffffffffffffffffffffffffffffffff1673ffffffffffffffffffffffffffffffffffffffff163373ffffffffffffffffffffffffffffffffffffffff161461055557600080fd5b60038081111561056857610567610835565b5b60008054906101000a900460ff16600381111561058857610587610835565b5b036105bc5760008060006101000a81548160ff021916908360038111156105b2576105b1610835565b5b0217905550610629565b6000600160008054906101000a900460ff1660038111156105e0576105df610835565b5b6105ea9190610ac8565b90508060038111156105ff576105fe610835565b5b6000806101000a81548160ff0219169083600381111561062257610621610835565b5b0217905550505b6002600381111561063d5761063c610835565b5b60008054906101000a900460ff16600381111561065d5761065c610835565b5b0361068f577f3bcc93d35219aa0512d7c0d1ca10b0231f473e3d5f9396877d1b7215ee0ab3d560405160405180910390a15b600160038111156106a3576106a2610835565b5b60008054906101000a900460ff1660038111156106c3576106c2610835565b5b036106f5577f02c124e22ee7da1c9905bbb317cf67658c1cc3ea1c0953b1633f85d0b5c281d960405160405180910390a15b565b60035481565b60006003548211610711576000905061082f565b600073ffffffffffffffffffffffffffffffffffffffff16600260009054906101000a900473ffffffffffffffffffffffffffffffffffffffff1673ffffffffffffffffffffffffffffffffffffffff16146107e25760035460046000600260009054906101000a900473ffffffffffffffffffffffffffffffffffffffff1673ffffffffffffffffffffffffffffffffffffffff1673ffffffffffffffffffffffffffffffffffffffff16815260200190815260200160002060008282546107da9190610ac8565b925050819055505b82600260006101000a81548173ffffffffffffffffffffffffffffffffffffffff021916908373ffffffffffffffffffffffffffffffffffffffff16021790555081600381905550600190505b92915050565b7f4e487b7100000000000000000000000000000000000000000000000000000000600052602160045260246000fd5b6004811061087557610874610835565b5b50565b600081905061088682610864565b919050565b600061089682610878565b9050919050565b6108a68161088b565b82525050565b60006020820190506108c1600083018461089d565b92915050565b600080fd5b6000819050919050565b6108df816108cc565b81146108ea57600080fd5b50565b6000813590506108fc816108d6565b92915050565b6000819050919050565b61091581610902565b811461092057600080fd5b50565b6000813590506109328161090c565b92915050565b6000806040838503121561094f5761094e6108c7565b5b600061095d858286016108ed565b925050602061096e85828601610923565b9150509250929050565b600073ffffffffffffffffffffffffffffffffffffffff82169050919050565b60006109a382610978565b9050919050565b6109b381610998565b82525050565b60006020820190506109ce60008301846109aa565b92915050565b6000602082840312156109ea576109e96108c7565b5b60006109f884828501610923565b91505092915050565b610a0a816108cc565b82525050565b6000602082019050610a256000830184610a01565b92915050565b6000819050919050565b610a46610a41826108cc565b610a2b565b82525050565b6000819050919050565b610a67610a6282610902565b610a4c565b82525050565b6000610a798285610a35565b602082019150610a898284610a56565b6020820191508190509392505050565b7f4e487b7100000000000000000000000000000000000000000000000000000000600052601160045260246000fd5b6000610ad3826108cc565b9150610ade836108cc565b9250827fffffffffffffffffffffffffffffffffffffffffffffffffffffffffffffffff03821115610b1357610b12610a99565b5b828201905092915050565b6000610b29826108cc565b9150610b34836108cc565b925082821015610b4757610b46610a99565b5b82820390509291505056fea264697066735822122075f88eec563e9ca0f0c439840e799c00eaa941511d480f91ccdb4b832c8d01d864736f6c634300080d0033",
  "immutableReferences": {},
  "source": "// SPDX-License-Identifier: GPL-3.0\n\npragma solidity >=0.7.0 <0.9.0;\n\ncontract BlindAuction {\n    //   \n    struct Bid {\n        bytes32 blindedBid; //  \n        uint256 deposit; // \n    }\n\n    //    .\n    enum Phase {\n        Init,\n        Bidding,\n        Reveal,\n        Done\n    }\n\n    Phase public currentPhase = Phase.Init;\n    address payable beneficiary; // owner -   \n    mapping(address => Bid) bids; //    1 \n\n    //   \n    address public highestBidder;\n    uint256 public highestBid = 0;\n\n    //    \n    mapping(address => uint256) depositReturns;\n\n    //  \n    event AuctionEnded(address winner, uint256 highestBid);\n    event BiddingStarted();\n    event RevealStarted();\n\n    //    \n    modifier validPhase(Phase phase) {\n        require(currentPhase == phase);\n        _;\n    }\n\n    //   \n    modifier onlyBeneficiary() {\n        require(msg.sender == beneficiary);\n        _;\n    }\n\n    // constructor  \n    constructor() {\n        beneficiary = payable(msg.sender);\n    }\n\n    // currentPhase  \n    function advancePhase() public onlyBeneficiary {\n        //  Done  Init  \n        if (currentPhase == Phase.Done) {\n            currentPhase = Phase.Init;\n        } else {\n            //    \n            // enum  uints   uint \n            uint256 nextPhase = uint256(currentPhase) + 1;\n            currentPhase = Phase(nextPhase);\n        }\n\n        //   \n        if (currentPhase == Phase.Reveal) emit RevealStarted();\n        if (currentPhase == Phase.Bidding) emit BiddingStarted();\n    }\n\n    //   \n    function bid(bytes32 blindBid) public payable validPhase(Phase.Bidding) {\n        bids[msg.sender] = Bid({blindedBid: blindBid, deposit: msg.value});\n    }\n\n    //   \n    function reveal(uint256 value, bytes32 secret)\n        public\n        validPhase(Phase.Reveal)\n    {\n        uint256 refund = 0;\n        Bid storage bidToCheck = bids[msg.sender];\n\n        if (\n            bidToCheck.blindedBid == keccak256(abi.encodePacked(value, secret))\n        ) {\n            refund += bidToCheck.deposit;\n            if (bidToCheck.deposit >= value && placeBid(msg.sender, value)) {\n                refund -= value;\n            }\n        }\n    }\n\n    //       - (internal)\n    function placeBid(address bidder, uint256 value)\n        internal\n        returns (bool success)\n    {\n        if (value <= highestBid) {\n            return false;\n        }\n\n        if (highestBidder != address(0)) {\n            //    \n            depositReturns[highestBidder] += highestBid;\n        }\n\n        highestBidder = bidder;\n        highestBid = value;\n        return true;\n    }\n\n    //     -    \n    function withdraw() public {\n        uint256 amount = depositReturns[msg.sender];\n        require(amount > 0);\n        depositReturns[msg.sender] = 0;\n        payable(msg.sender).transfer(amount);\n    }\n\n    //       - Done  \n    function auctionEnd() public validPhase(Phase.Done) {\n        beneficiary.transfer(highestBid);\n    }\n}\n",
  "sourcePath": "/mnt/c/Users//Desktop/studying_solidity/Chapter06/BlindAuction-Dapp/blindauction-contract/contracts/BlindAuction.sol",
  "compiler": {
    "name": "solc",
    "version": "0.8.13+commit.abaa5c0e.Emscripten.clang"
  },
  "schemaVersion": "3.4.7",
  "updatedAt": "2022-05-17T07:16:08.282Z",
  "devdoc": {
    "kind": "dev",
    "methods": {},
    "version": 1
  },
  "userdoc": {
    "kind": "user",
    "methods": {},
    "version": 1
  }
}